{
  "contractName": "OnlineVoting",
  "abi": [
    {
      "inputs": [
        {
          "internalType": "uint256",
          "name": "_durationMinutes",
          "type": "uint256"
        }
      ],
      "stateMutability": "nonpayable",
      "type": "constructor"
    },
    {
      "anonymous": false,
      "inputs": [
        {
          "indexed": false,
          "internalType": "uint256",
          "name": "id",
          "type": "uint256"
        },
        {
          "indexed": false,
          "internalType": "string",
          "name": "name",
          "type": "string"
        }
      ],
      "name": "CandidateAdded",
      "type": "event"
    },
    {
      "anonymous": false,
      "inputs": [
        {
          "indexed": false,
          "internalType": "uint256",
          "name": "candidateId",
          "type": "uint256"
        },
        {
          "indexed": false,
          "internalType": "string",
          "name": "name",
          "type": "string"
        }
      ],
      "name": "CandidateRegistered",
      "type": "event"
    },
    {
      "anonymous": false,
      "inputs": [
        {
          "indexed": true,
          "internalType": "address",
          "name": "userAddress",
          "type": "address"
        }
      ],
      "name": "UserLoggedIn",
      "type": "event"
    },
    {
      "anonymous": false,
      "inputs": [
        {
          "indexed": true,
          "internalType": "address",
          "name": "userAddress",
          "type": "address"
        },
        {
          "indexed": false,
          "internalType": "string",
          "name": "name",
          "type": "string"
        },
        {
          "indexed": false,
          "internalType": "string",
          "name": "mobile",
          "type": "string"
        },
        {
          "indexed": false,
          "internalType": "string",
          "name": "aadhar",
          "type": "string"
        }
      ],
      "name": "UserRegistered",
      "type": "event"
    },
    {
      "anonymous": false,
      "inputs": [
        {
          "indexed": true,
          "internalType": "address",
          "name": "voter",
          "type": "address"
        },
        {
          "indexed": false,
          "internalType": "uint256",
          "name": "candidateId",
          "type": "uint256"
        }
      ],
      "name": "VoteCasted",
      "type": "event"
    },
    {
      "anonymous": false,
      "inputs": [
        {
          "indexed": false,
          "internalType": "uint256",
          "name": "candidateId",
          "type": "uint256"
        },
        {
          "indexed": false,
          "internalType": "address",
          "name": "voter",
          "type": "address"
        }
      ],
      "name": "Voted",
      "type": "event"
    },
    {
      "inputs": [],
      "name": "admin",
      "outputs": [
        {
          "internalType": "address",
          "name": "",
          "type": "address"
        }
      ],
      "stateMutability": "view",
      "type": "function",
      "constant": true
    },
    {
      "inputs": [
        {
          "internalType": "uint256",
          "name": "",
          "type": "uint256"
        }
      ],
      "name": "candidates",
      "outputs": [
        {
          "internalType": "uint256",
          "name": "id",
          "type": "uint256"
        },
        {
          "internalType": "string",
          "name": "name",
          "type": "string"
        },
        {
          "internalType": "string",
          "name": "photoFileName",
          "type": "string"
        },
        {
          "internalType": "uint256",
          "name": "age",
          "type": "uint256"
        },
        {
          "internalType": "uint256",
          "name": "dob",
          "type": "uint256"
        },
        {
          "internalType": "string",
          "name": "region",
          "type": "string"
        },
        {
          "internalType": "uint256",
          "name": "experience",
          "type": "uint256"
        },
        {
          "internalType": "string",
          "name": "manifestoFileName",
          "type": "string"
        },
        {
          "internalType": "uint256",
          "name": "voteCount",
          "type": "uint256"
        }
      ],
      "stateMutability": "view",
      "type": "function",
      "constant": true
    },
    {
      "inputs": [],
      "name": "candidatesCount",
      "outputs": [
        {
          "internalType": "uint256",
          "name": "",
          "type": "uint256"
        }
      ],
      "stateMutability": "view",
      "type": "function",
      "constant": true
    },
    {
      "inputs": [],
      "name": "electionEndTime",
      "outputs": [
        {
          "internalType": "uint256",
          "name": "",
          "type": "uint256"
        }
      ],
      "stateMutability": "view",
      "type": "function",
      "constant": true
    },
    {
      "inputs": [
        {
          "internalType": "address",
          "name": "",
          "type": "address"
        }
      ],
      "name": "users",
      "outputs": [
        {
          "internalType": "string",
          "name": "name",
          "type": "string"
        },
        {
          "internalType": "string",
          "name": "mobile",
          "type": "string"
        },
        {
          "internalType": "string",
          "name": "aadhar",
          "type": "string"
        },
        {
          "internalType": "address",
          "name": "userAddress",
          "type": "address"
        },
        {
          "internalType": "bool",
          "name": "isRegistered",
          "type": "bool"
        }
      ],
      "stateMutability": "view",
      "type": "function",
      "constant": true
    },
    {
      "inputs": [],
      "name": "usersCount",
      "outputs": [
        {
          "internalType": "uint256",
          "name": "",
          "type": "uint256"
        }
      ],
      "stateMutability": "view",
      "type": "function",
      "constant": true
    },
    {
      "inputs": [
        {
          "internalType": "address",
          "name": "",
          "type": "address"
        }
      ],
      "name": "voters",
      "outputs": [
        {
          "internalType": "bool",
          "name": "hasVoted",
          "type": "bool"
        },
        {
          "internalType": "uint256",
          "name": "votedCandidateId",
          "type": "uint256"
        }
      ],
      "stateMutability": "view",
      "type": "function",
      "constant": true
    },
    {
      "inputs": [
        {
          "internalType": "string",
          "name": "_name",
          "type": "string"
        },
        {
          "internalType": "string",
          "name": "_photoFileName",
          "type": "string"
        },
        {
          "internalType": "uint256",
          "name": "_age",
          "type": "uint256"
        },
        {
          "internalType": "uint256",
          "name": "_dob",
          "type": "uint256"
        },
        {
          "internalType": "string",
          "name": "_region",
          "type": "string"
        },
        {
          "internalType": "uint256",
          "name": "_experience",
          "type": "uint256"
        },
        {
          "internalType": "string",
          "name": "_manifestoFileName",
          "type": "string"
        }
      ],
      "name": "addCandidate",
      "outputs": [],
      "stateMutability": "nonpayable",
      "type": "function"
    },
    {
      "inputs": [
        {
          "internalType": "uint256",
          "name": "_candidateId",
          "type": "uint256"
        }
      ],
      "name": "vote",
      "outputs": [],
      "stateMutability": "nonpayable",
      "type": "function"
    },
    {
      "inputs": [],
      "name": "getWinner",
      "outputs": [
        {
          "internalType": "string",
          "name": "winnerName",
          "type": "string"
        },
        {
          "internalType": "uint256",
          "name": "winnerVotes",
          "type": "uint256"
        }
      ],
      "stateMutability": "view",
      "type": "function",
      "constant": true
    },
    {
      "inputs": [
        {
          "internalType": "uint256",
          "name": "_candidateId",
          "type": "uint256"
        }
      ],
      "name": "getCandidate",
      "outputs": [
        {
          "internalType": "string",
          "name": "",
          "type": "string"
        },
        {
          "internalType": "string",
          "name": "",
          "type": "string"
        },
        {
          "internalType": "uint256",
          "name": "",
          "type": "uint256"
        },
        {
          "internalType": "uint256",
          "name": "",
          "type": "uint256"
        },
        {
          "internalType": "string",
          "name": "",
          "type": "string"
        },
        {
          "internalType": "uint256",
          "name": "",
          "type": "uint256"
        },
        {
          "internalType": "string",
          "name": "",
          "type": "string"
        },
        {
          "internalType": "uint256",
          "name": "",
          "type": "uint256"
        }
      ],
      "stateMutability": "view",
      "type": "function",
      "constant": true
    },
    {
      "inputs": [
        {
          "internalType": "string",
          "name": "_name",
          "type": "string"
        },
        {
          "internalType": "string",
          "name": "_mobile",
          "type": "string"
        },
        {
          "internalType": "string",
          "name": "_aadhar",
          "type": "string"
        }
      ],
      "name": "registerUser",
      "outputs": [
        {
          "internalType": "bool",
          "name": "",
          "type": "bool"
        }
      ],
      "stateMutability": "nonpayable",
      "type": "function"
    },
    {
      "inputs": [
        {
          "internalType": "address",
          "name": "_userAddress",
          "type": "address"
        }
      ],
      "name": "getUser",
      "outputs": [
        {
          "internalType": "string",
          "name": "",
          "type": "string"
        },
        {
          "internalType": "string",
          "name": "",
          "type": "string"
        },
        {
          "internalType": "string",
          "name": "",
          "type": "string"
        },
        {
          "internalType": "address",
          "name": "",
          "type": "address"
        }
      ],
      "stateMutability": "view",
      "type": "function",
      "constant": true
    },
    {
      "inputs": [
        {
          "internalType": "string",
          "name": "_aadhar",
          "type": "string"
        },
        {
          "internalType": "address",
          "name": "_userAddress",
          "type": "address"
        }
      ],
      "name": "loginUser",
      "outputs": [
        {
          "internalType": "bool",
          "name": "",
          "type": "bool"
        }
      ],
      "stateMutability": "view",
      "type": "function",
      "constant": true
    }
  ],
  "bytecode": "0x60806040523480156200001157600080fd5b5060405162001bdb38038062001bdb833981016040819052620000349162000069565b600080546001600160a01b031916331790556200005381603c62000099565b6200005f9042620000b9565b60015550620000cf565b6000602082840312156200007c57600080fd5b5051919050565b634e487b7160e01b600052601160045260246000fd5b8082028115828204841417620000b357620000b362000083565b92915050565b80820180821115620000b357620000b362000083565b611afc80620000df6000396000f3fe608060405234801561001057600080fd5b50600436106100ea5760003560e01c80636f77926b1161008c578063a3ec138d11610066578063a3ec138d146101f0578063a87430ba14610234578063d637dcfa14610258578063f851a4401461026b57600080fd5b80636f77926b146101ae5780638e7ea5b2146101d15780639e136e64146101e757600080fd5b80632e4327d5116100c85780632e4327d5146101335780633477ee2e1461015657806335b8e8201461017e5780636ba13a82146101a557600080fd5b80630121b93f146100ef5780630e2f0e9b146101045780632d35a8a214610117575b600080fd5b6101026100fd366004611423565b610296565b005b6101026101123660046114df565b610421565b61012060065481565b6040519081526020015b60405180910390f35b6101466101413660046115c5565b6105c2565b604051901515815260200161012a565b610169610164366004611423565b6106d0565b60405161012a99989796959493929190611663565b61019161018c366004611423565b610937565b60405161012a9897969594939291906116e3565b61012060075481565b6101c16101bc36600461175b565b610c7b565b60405161012a949392919061177d565b6101d9610f0a565b60405161012a9291906117d0565b61012060015481565b61021d6101fe36600461175b565b6003602052600090815260409020805460019091015460ff9091169082565b60408051921515835260208301919091520161012a565b61024761024236600461175b565b611007565b60405161012a9594939291906117f2565b61014661026636600461184e565b6111dd565b60005461027e906001600160a01b031681565b6040516001600160a01b03909116815260200161012a565b60015442106102e15760405162461bcd60e51b8152602060048201526012602482015271115b1958dd1a5bdb881a185cc8195b99195960721b60448201526064015b60405180910390fd5b3360009081526003602052604090205460ff161561033a5760405162461bcd60e51b8152602060048201526016602482015275165bdd481a185d9948185b1c9958591e481d9bdd195960521b60448201526064016102d8565b60008111801561034c57506006548111155b61038f5760405162461bcd60e51b8152602060048201526014602482015273125b9d985b1a590818d85b991a59185d1948125160621b60448201526064016102d8565b60408051808201825260018082526020808301858152336000908152600383528581209451855460ff19169015151785559051939092019290925583815260029091529081206008018054916103e4836118d6565b909155505060405181815233907fd0e6c39f2e086dc49f1524b47725526a56945cd1ff661f37976f1725a1e569869060200160405180910390a250565b6000546001600160a01b031633146104865760405162461bcd60e51b815260206004820152602260248201527f4f6e6c792061646d696e2063616e20706572666f726d2074686973206163746960448201526137b760f11b60648201526084016102d8565b60068054906000610496836118d6565b9190505550604051806101200160405280600654815260200188815260200187815260200186815260200185815260200184815260200183815260200182815260200160008152506002600060065481526020019081526020016000206000820151816000015560208201518160010190816105129190611986565b50604082015160028201906105279082611986565b50606082015160038201556080820151600482015560a082015160058201906105509082611986565b5060c0820151600682015560e0820151600782019061056f9082611986565b5061010082015181600801559050507fe83b2a43e7e82d975c8a0a6d2f045153c869e111136a34d1889ab7b598e396a3600654886040516105b1929190611a46565b60405180910390a150505050505050565b6000806001600160a01b03166005846040516105de9190611a67565b908152604051908190036020019020546001600160a01b03160361063c5760405162461bcd60e51b81526020600482015260156024820152741058591a185c881b9bdd081c9959da5cdd195c9959605a1b60448201526064016102d8565b600060058460405161064e9190611a67565b908152604051908190036020019020546001600160a01b039081169150831681146106c65760405162461bcd60e51b815260206004820152602260248201527f496e76616c696420416164686172206f7220457468657265756d206164647265604482015261737360f01b60648201526084016102d8565b5060019392505050565b600260205260009081526040902080546001820180549192916106f2906118fd565b80601f016020809104026020016040519081016040528092919081815260200182805461071e906118fd565b801561076b5780601f106107405761010080835404028352916020019161076b565b820191906000526020600020905b81548152906001019060200180831161074e57829003601f168201915b505050505090806002018054610780906118fd565b80601f01602080910402602001604051908101604052809291908181526020018280546107ac906118fd565b80156107f95780601f106107ce576101008083540402835291602001916107f9565b820191906000526020600020905b8154815290600101906020018083116107dc57829003601f168201915b50505050509080600301549080600401549080600501805461081a906118fd565b80601f0160208091040260200160405190810160405280929190818152602001828054610846906118fd565b80156108935780601f1061086857610100808354040283529160200191610893565b820191906000526020600020905b81548152906001019060200180831161087657829003601f168201915b5050505050908060060154908060070180546108ae906118fd565b80601f01602080910402602001604051908101604052809291908181526020018280546108da906118fd565b80156109275780601f106108fc57610100808354040283529160200191610927565b820191906000526020600020905b81548152906001019060200180831161090a57829003601f168201915b5050505050908060080154905089565b6060806000806060600060606000808911801561095657506006548911155b6109995760405162461bcd60e51b8152602060048201526014602482015273125b9d985b1a590818d85b991a59185d1948125160621b60448201526064016102d8565b6000600260008b815260200190815260200160002060405180610120016040529081600082015481526020016001820180546109d4906118fd565b80601f0160208091040260200160405190810160405280929190818152602001828054610a00906118fd565b8015610a4d5780601f10610a2257610100808354040283529160200191610a4d565b820191906000526020600020905b815481529060010190602001808311610a3057829003601f168201915b50505050508152602001600282018054610a66906118fd565b80601f0160208091040260200160405190810160405280929190818152602001828054610a92906118fd565b8015610adf5780601f10610ab457610100808354040283529160200191610adf565b820191906000526020600020905b815481529060010190602001808311610ac257829003601f168201915b505050505081526020016003820154815260200160048201548152602001600582018054610b0c906118fd565b80601f0160208091040260200160405190810160405280929190818152602001828054610b38906118fd565b8015610b855780601f10610b5a57610100808354040283529160200191610b85565b820191906000526020600020905b815481529060010190602001808311610b6857829003601f168201915b5050505050815260200160068201548152602001600782018054610ba8906118fd565b80601f0160208091040260200160405190810160405280929190818152602001828054610bd4906118fd565b8015610c215780601f10610bf657610100808354040283529160200191610c21565b820191906000526020600020905b815481529060010190602001808311610c0457829003601f168201915b50505050508152602001600882015481525050905080602001518160400151826060015183608001518460a001518560c001518660e001518761010001519850985098509850985098509850985050919395975091939597565b6001600160a01b0381166000908152600460205260408120600301546060918291829190600160a01b900460ff16610ce65760405162461bcd60e51b815260206004820152600e60248201526d155cd95c881b9bdd08199bdd5b9960921b60448201526064016102d8565b6001600160a01b038516600090815260046020526040808220815160a08101909252805482908290610d17906118fd565b80601f0160208091040260200160405190810160405280929190818152602001828054610d43906118fd565b8015610d905780601f10610d6557610100808354040283529160200191610d90565b820191906000526020600020905b815481529060010190602001808311610d7357829003601f168201915b50505050508152602001600182018054610da9906118fd565b80601f0160208091040260200160405190810160405280929190818152602001828054610dd5906118fd565b8015610e225780601f10610df757610100808354040283529160200191610e22565b820191906000526020600020905b815481529060010190602001808311610e0557829003601f168201915b50505050508152602001600282018054610e3b906118fd565b80601f0160208091040260200160405190810160405280929190818152602001828054610e67906118fd565b8015610eb45780601f10610e8957610100808354040283529160200191610eb4565b820191906000526020600020905b815481529060010190602001808311610e9757829003601f168201915b5050509183525050600391909101546001600160a01b038116602080840191909152600160a01b90910460ff16151560409283015282519083015191830151606090930151909991985091965090945092505050565b60408051602081019091526000808252606091819060015b6006548111610ffe57600081815260026020526040902060080154831015610fec57600081815260026020526040902060088101546001909101805491945090610f6b906118fd565b80601f0160208091040260200160405190810160405280929190818152602001828054610f97906118fd565b8015610fe45780601f10610fb957610100808354040283529160200191610fe4565b820191906000526020600020905b815481529060010190602001808311610fc757829003601f168201915b505050505091505b80610ff6816118d6565b915050610f22565b50939092509050565b600460205260009081526040902080548190611022906118fd565b80601f016020809104026020016040519081016040528092919081815260200182805461104e906118fd565b801561109b5780601f106110705761010080835404028352916020019161109b565b820191906000526020600020905b81548152906001019060200180831161107e57829003601f168201915b5050505050908060010180546110b0906118fd565b80601f01602080910402602001604051908101604052809291908181526020018280546110dc906118fd565b80156111295780601f106110fe57610100808354040283529160200191611129565b820191906000526020600020905b81548152906001019060200180831161110c57829003601f168201915b50505050509080600201805461113e906118fd565b80601f016020809104026020016040519081016040528092919081815260200182805461116a906118fd565b80156111b75780601f1061118c576101008083540402835291602001916111b7565b820191906000526020600020905b81548152906001019060200180831161119a57829003601f168201915b505050600390930154919250506001600160a01b0381169060ff600160a01b9091041685565b33600090815260046020526040812060030154600160a01b900460ff16156112595760405162461bcd60e51b815260206004820152602960248201527f5573657220616c7265616479207265676973746572656420776974682074686960448201526873206164647265737360b81b60648201526084016102d8565b60006001600160a01b03166005836040516112749190611a67565b908152604051908190036020019020546001600160a01b0316146112da5760405162461bcd60e51b815260206004820181905260248201527f416164686172206e756d62657220616c7265616479207265676973746572656460448201526064016102d8565b600780549060006112ea836118d6565b90915550506040805160a08101825285815260208082018690528183018590523360608301819052600160808401526000908152600490915291909120815181906113359082611986565b506020820151600182019061134a9082611986565b506040820151600282019061135f9082611986565b506060820151600390910180546080909301511515600160a01b026001600160a81b03199093166001600160a01b039092169190911791909117905560405133906005906113ae908590611a67565b90815260405190819003602001812080546001600160a01b03939093166001600160a01b03199093169290921790915533907f509c70f523067009f7db7f46db6956d7af8b679323680dc3821a8bad001ac1e19061141190879087908790611a83565b60405180910390a25060019392505050565b60006020828403121561143557600080fd5b5035919050565b634e487b7160e01b600052604160045260246000fd5b600082601f83011261146357600080fd5b813567ffffffffffffffff8082111561147e5761147e61143c565b604051601f8301601f19908116603f011681019082821181831017156114a6576114a661143c565b816040528381528660208588010111156114bf57600080fd5b836020870160208301376000602085830101528094505050505092915050565b600080600080600080600060e0888a0312156114fa57600080fd5b873567ffffffffffffffff8082111561151257600080fd5b61151e8b838c01611452565b985060208a013591508082111561153457600080fd5b6115408b838c01611452565b975060408a0135965060608a0135955060808a013591508082111561156457600080fd5b6115708b838c01611452565b945060a08a0135935060c08a013591508082111561158d57600080fd5b5061159a8a828b01611452565b91505092959891949750929550565b80356001600160a01b03811681146115c057600080fd5b919050565b600080604083850312156115d857600080fd5b823567ffffffffffffffff8111156115ef57600080fd5b6115fb85828601611452565b92505061160a602084016115a9565b90509250929050565b60005b8381101561162e578181015183820152602001611616565b50506000910152565b6000815180845261164f816020860160208601611613565b601f01601f19169290920160200192915050565b60006101208b835280602084015261167d8184018c611637565b90508281036040840152611691818b611637565b905088606084015287608084015282810360a08401526116b18188611637565b90508560c084015282810360e08401526116cb8186611637565b915050826101008301529a9950505050505050505050565b60006101008083526116f78184018c611637565b9050828103602084015261170b818b611637565b9050886040840152876060840152828103608084015261172b8188611637565b90508560a084015282810360c08401526117458186611637565b9150508260e08301529998505050505050505050565b60006020828403121561176d57600080fd5b611776826115a9565b9392505050565b6080815260006117906080830187611637565b82810360208401526117a28187611637565b905082810360408401526117b68186611637565b91505060018060a01b038316606083015295945050505050565b6040815260006117e36040830185611637565b90508260208301529392505050565b60a08152600061180560a0830188611637565b82810360208401526118178188611637565b9050828103604084015261182b8187611637565b6001600160a01b0395909516606084015250509015156080909101529392505050565b60008060006060848603121561186357600080fd5b833567ffffffffffffffff8082111561187b57600080fd5b61188787838801611452565b9450602086013591508082111561189d57600080fd5b6118a987838801611452565b935060408601359150808211156118bf57600080fd5b506118cc86828701611452565b9150509250925092565b6000600182016118f657634e487b7160e01b600052601160045260246000fd5b5060010190565b600181811c9082168061191157607f821691505b60208210810361193157634e487b7160e01b600052602260045260246000fd5b50919050565b601f82111561198157600081815260208120601f850160051c8101602086101561195e5750805b601f850160051c820191505b8181101561197d5782815560010161196a565b5050505b505050565b815167ffffffffffffffff8111156119a0576119a061143c565b6119b4816119ae84546118fd565b84611937565b602080601f8311600181146119e957600084156119d15750858301515b600019600386901b1c1916600185901b17855561197d565b600085815260208120601f198616915b82811015611a18578886015182559484019460019091019084016119f9565b5085821015611a365787850151600019600388901b60f8161c191681555b5050505050600190811b01905550565b828152604060208201526000611a5f6040830184611637565b949350505050565b60008251611a79818460208701611613565b9190910192915050565b606081526000611a966060830186611637565b8281036020840152611aa88186611637565b90508281036040840152611abc8185611637565b969550505050505056fea2646970667358221220da638d02b9c43725265d8cd8689386da961c5afd574cca91a7994372fb1b566164736f6c63430008140033",
  "immutableReferences": {},
  "source": "// SPDX-License-Identifier: MIT\r\npragma solidity ^0.8.0;\r\n\r\ncontract OnlineVoting {\r\n    address public admin;\r\n    uint public electionEndTime;\r\n\r\n    struct Candidate {\r\n        uint id;\r\n        string name;\r\n        string photoFileName;\r\n        uint age;\r\n        uint256 dob;\r\n        string region;\r\n        uint experience;\r\n        string manifestoFileName;\r\n        uint voteCount;\r\n    }\r\n\r\n    struct Voter {\r\n        bool hasVoted;\r\n        uint votedCandidateId;\r\n    }\r\n\r\n    struct User {\r\n        string name;\r\n        string mobile;\r\n        string aadhar;\r\n        address userAddress;\r\n        bool isRegistered;\r\n    }\r\n\r\n    mapping(uint => Candidate) public candidates;\r\n    mapping(address => Voter) public voters;\r\n    mapping(address => User) public users;\r\n    mapping(string => address) private registeredAadhars;\r\n\r\n    uint public candidatesCount;\r\n    uint public usersCount;\r\n\r\n    event VoteCasted(address indexed voter, uint candidateId);\r\n    event CandidateRegistered(uint candidateId, string name);\r\n    event CandidateAdded(uint id, string name);\r\n    event Voted(uint candidateId, address voter);\r\n    event UserRegistered(\r\n        address indexed userAddress,\r\n        string name,\r\n        string mobile,\r\n        string aadhar\r\n    );\r\n    event UserLoggedIn(address indexed userAddress);\r\n\r\n    modifier onlyAdmin() {\r\n        require(msg.sender == admin, \"Only admin can perform this action\");\r\n        _;\r\n    }\r\n\r\n    modifier electionOngoing() {\r\n        require(block.timestamp < electionEndTime, \"Election has ended\");\r\n        _;\r\n    }\r\n\r\n    constructor(uint _durationMinutes) {\r\n        admin = msg.sender;\r\n        electionEndTime = block.timestamp + (_durationMinutes * 1 minutes);\r\n    }\r\n\r\n    function addCandidate(\r\n        string memory _name,\r\n        string memory _photoFileName,\r\n        uint _age,\r\n        uint256 _dob,\r\n        string memory _region,\r\n        uint _experience,\r\n        string memory _manifestoFileName\r\n    ) public onlyAdmin {\r\n        candidatesCount++;\r\n        candidates[candidatesCount] = Candidate(\r\n            candidatesCount,\r\n            _name,\r\n            _photoFileName,\r\n            _age,\r\n            _dob,\r\n            _region,\r\n            _experience,\r\n            _manifestoFileName,\r\n            0\r\n        );\r\n\r\n        emit CandidateAdded(candidatesCount, _name);\r\n    }\r\n\r\n    function vote(uint _candidateId) public electionOngoing {\r\n        require(!voters[msg.sender].hasVoted, \"You have already voted\");\r\n        require(\r\n            _candidateId > 0 && _candidateId <= candidatesCount,\r\n            \"Invalid candidate ID\"\r\n        );\r\n\r\n        voters[msg.sender] = Voter(true, _candidateId);\r\n        candidates[_candidateId].voteCount++;\r\n\r\n        emit VoteCasted(msg.sender, _candidateId);\r\n    }\r\n\r\n    function getWinner()\r\n        public\r\n        view\r\n        returns (string memory winnerName, uint winnerVotes)\r\n    {\r\n        // require(block.timestamp > electionEndTime, \"Election is still ongoing\");\r\n\r\n        uint maxVotes = 0;\r\n        string memory leadingCandidate = \"\";\r\n\r\n        for (uint i = 1; i <= candidatesCount; i++) {\r\n            if (candidates[i].voteCount > maxVotes) {\r\n                maxVotes = candidates[i].voteCount;\r\n                leadingCandidate = candidates[i].name;\r\n            }\r\n        }\r\n\r\n        return (leadingCandidate, maxVotes);\r\n    }\r\n\r\n    function getCandidate(\r\n        uint _candidateId\r\n    )\r\n        public\r\n        view\r\n        returns (\r\n            string memory,\r\n            string memory,\r\n            uint,\r\n            uint,\r\n            string memory,\r\n            uint,\r\n            string memory,\r\n            uint\r\n        )\r\n    {\r\n        require(\r\n            _candidateId > 0 && _candidateId <= candidatesCount,\r\n            \"Invalid candidate ID\"\r\n        );\r\n        Candidate memory candidate = candidates[_candidateId];\r\n\r\n        return (\r\n            candidate.name,\r\n            candidate.photoFileName,\r\n            candidate.age,\r\n            candidate.dob,\r\n            candidate.region,\r\n            candidate.experience,\r\n            candidate.manifestoFileName,\r\n            candidate.voteCount\r\n        );\r\n    }\r\n\r\n    function registerUser(\r\n        string memory _name,\r\n        string memory _mobile,\r\n        string memory _aadhar\r\n    ) public returns (bool) {\r\n        require(\r\n            !users[msg.sender].isRegistered,\r\n            \"User already registered with this address\"\r\n        );\r\n        require(\r\n            registeredAadhars[_aadhar] == address(0),\r\n            \"Aadhar number already registered\"\r\n        );\r\n\r\n        usersCount++;\r\n        users[msg.sender] = User(_name, _mobile, _aadhar, msg.sender, true);\r\n        // registeredAadhars[_aadhar] = true; // Mark Aadhar as registered\r\n        registeredAadhars[_aadhar] = msg.sender;\r\n\r\n        emit UserRegistered(msg.sender, _name, _mobile, _aadhar);\r\n\r\n        return true;\r\n    }\r\n\r\n    function getUser(\r\n        address _userAddress\r\n    )\r\n        public\r\n        view\r\n        returns (string memory, string memory, string memory, address)\r\n    {\r\n        require(users[_userAddress].isRegistered, \"User not found\");\r\n        User memory user = users[_userAddress];\r\n        return (user.name, user.mobile, user.aadhar, user.userAddress);\r\n    }\r\n\r\n    function loginUser(\r\n        string memory _aadhar,\r\n        address _userAddress\r\n    ) public view returns (bool) {\r\n\r\n        require(\r\n            registeredAadhars[_aadhar] != address(0),\r\n            \"Aadhar not registered\"\r\n        );\r\n\r\n        address registeredAddress = registeredAadhars[_aadhar];\r\n        require(\r\n            registeredAddress == _userAddress,\r\n            \"Invalid Aadhar or Ethereum address\"\r\n        ); // Match both\r\n\r\n        return true; // Successful login\r\n    }\r\n}\r\n",
  "sourcePath": "E:\\startProject\\onlineVoting\\contracts\\OnlineVoting.sol",
  "compiler": {
    "name": "solc",
    "version": "0.8.20+commit.a1b79de6.Emscripten.clang"
  },
  "schemaVersion": "3.4.16",
  "updatedAt": "2025-03-09T07:44:05.551Z",
  "networkType": "ethereum",
  "devdoc": {
    "kind": "dev",
    "methods": {},
    "version": 1
  },
  "userdoc": {
    "kind": "user",
    "methods": {},
    "version": 1
  }
}